:020000040800F2
:100000000000012019170008691700086917000887
:100010006917000869170008691700080000000048
:100020000000000000000000000000006917000848
:100030006917000800000000691700086917000828
:100040000000000069170008691700086917000818
:100050006917000869170008691700086917000880
:1000600069170008691700086917000800000000F8
:100070000000000000000000000000000000000080
:1000800000000000000000006917000800000000E8
:1000900000000000000000000000000069170008D8
:1000A0006917000869170008691700086917000830
:1000B0006917000869170008691700086917000820
:1000C0006917000869170008691700086917000810
:1000D00069170008451600086116000800000000B6
:1000E0006917000869170008691700080000000078
:1000F0000000000000000000000000000000000000
:100100000000000069170008691700086917000857
:1001100000000000000000000000000000000000DF
:1001200000000000000000000000000000000000CF
:1001300000000000000000000000000000000000BF
:100140000000000000000000000000006917000827
:100150000000000000000000000000007D16000804
:10016000691700086917000800000000000000007F
:10017000000000000000000000000000000000007F
:1001800000000000691700080000000000000000E7
:0401900069170008E3
:1001980010B5054C237833B9044B13B10448AFF3B9
:1001A80000800123237010BD0C0000200000000017
:1001B800C417000808B5034B1BB103490348AFF344
:1001C800008008BD0000000010000020C4170008CF
:1001D80053B94AB9002908BF00281CBF4FF0FF31A6
:1001E8004FF0FF3000F074B9ADF1080C6DE904CEA2
:1001F80000F006F8DDF804E0DDE9022304B07047FA
:100208002DE9F047089D04468E46002B4DD18A42C1
:10021800944669D9B2FA82F252B101FA02F3C2F1F4
:10022800200120FA01F10CFA02FC41EA030E944085
:100238004FEA1C48210CBEFBF8F61FFA8CF708FBA6
:1002480016E341EA034306FB07F199420AD91CEB7E
:10025800030306F1FF3080F01F81994240F21C81B0
:10026800023E63445B1AA4B2B3FBF8F008FB1033F8
:1002780044EA034400FB07F7A7420AD91CEB04042D
:1002880000F1FF3380F00A81A74240F207816444FD
:10029800023840EA0640E41B00261DB1D440002382
:1002A800C5E900433146BDE8F0878B4209D9002DE6
:1002B80000F0EF800026C5E9000130463146BDE870
:1002C800F087B3FA83F6002E4AD18B4202D38242DA
:1002D80000F2F980841A61EB030301209E46002D89
:1002E800E0D0C5E9004EDDE702B9FFDEB2FA82F2DE
:1002F800002A40F09280A1EB0C014FEA1C471FFA3C
:100308008CFE0126200CB1FBF7F307FB131140EA22
:1003180001410EFB03F0884208D91CEB010103F1EF
:10032800FF3802D2884200F2CB804346091AA4B2B1
:10033800B1FBF7F007FB101144EA01440EFB00FE85
:10034800A64508D91CEB040400F1FF3102D2A645EA
:1003580000F2BB800846A4EB0E0440EA03409CE789
:10036800C6F12007B34022FA07FC4CEA030C20FA36
:1003780007F401FA06F31C43F9404FEA1C4900FA56
:1003880006F3B1FBF9F8200C1FFA8CFE09FB1811D3
:1003980040EA014108FB0EF0884202FA06F20BD946
:1003A8001CEB010108F1FF3A80F08880884240F296
:1003B8008580A8F102086144091AA4B2B1FBF9F0DA
:1003C80009FB101144EA014100FB0EFE8E4508D9D5
:1003D8001CEB010100F1FF346CD28E456AD902385A
:1003E800614440EA0840A0FB0294A1EB0E01A1423F
:1003F800C846A64656D353D05DB1B3EB080261EBAD
:100408000E0101FA07F722FA06F3F1401F43C5E986
:10041800007100263146BDE8F087C2F12003D840BC
:100428000CFA02FC21FA03F3914001434FEA1C47FE
:100438001FFA8CFEB3FBF7F007FB10360B0C43EAF0
:10044800064300FB0EF69E4204FA02F408D91CEBA0
:10045800030300F1FF382FD29E422DD9023863449E
:100468009B1B89B2B3FBF7F607FB163341EA03413E
:1004780006FB0EF38B4208D91CEB010106F1FF388D
:1004880016D28B4214D9023E6144C91A46EA004684
:1004980038E72E46284605E70646E3E61846F8E616
:1004A8004B45A9D2B9EB020864EB0C0E0138A3E75F
:1004B8004646EAE7204694E74046D1E7D0467BE740
:1004C800023B614432E7304609E76444023842E7B8
:1004D800704700BF80B5B2B000AF00233B603B1D42
:1004E800C4220021184601F061F93B46194620480C
:1004F80001F06AF83A783B46013319461C4801F086
:100508007EF87B78103B062B29D801A252F823F0FD
:10051800350500083F05000849050008670500087B
:100528006D050008530500085D0500083B461846A0
:1005380000F076F817E03B46184600F0A7F812E0FE
:100548003B46184600F0DCF80DE03B46184600F044
:100558004BF908E03B46184600F08CF903E000F040
:1005680055F800E000BF00BFC837BD4680BD00BFDA
:100578000010014080B588B000AFF8600B467A6083
:10058800FB720023FB61AB23FB7600233B61002356
:100598007B610EE07B69FA6813441B783B6107F1C5
:1005A80010030121184600F037FAF8617B6901331E
:1005B8007B61FB7A7A699A42ECDB00F051FAFA69BE
:1005C8007B689A4201D1CD23FB76FB7E1846203703
:1005D800BD4680BD80B584B000AF0346FB710023E3
:1005E800BB81CD233B73FB797B733B7B1946064864
:1005F80000F0A8FF7B7B1946034800F0A3FF00BF6B
:100608001037BD4680BD00BF0010014080B500AF67
:10061800AB21024800F096FF00BF80BD00100140EA
:1006280080B586B000AF7860164BFB600023FB8274
:1006380000233B617B681B789BB20133FB82FB8AFA
:10064800043B7A6813441B683B61FB8ADBB2043BBA
:10065800DBB23A6919467868FFF78CFF0346CD2B61
:100668000AD10420FFF7B6FF07F10C03042219464C
:10067800054800F084FF01E0FFF7C8FF00BF183706
:10068800BD4680BD640101000010014080B588B0FE
:1006980000AF7860184A07F10C0307CA83E807001F
:1006A8000023FB830023BB617B681B789BB201336B
:1006B800FB83FB8B043B7A6813441B68BB61FB8B91
:1006C800DBB2043BDBB2BA6919467868FFF752FF20
:1006D8000346CD2B0AD10C20FFF77CFF07F10C0352
:1006E8000C221946054800F04AFF01E0FFF78EFF8B
:1006F80000BF2037BD4680BDDC1700080010014050
:1007080080B586B000AF78600023FB810023FB82B0
:1007180000233B617B681B789BB20133FB82FB8A19
:10072800043B7A6813441B683B61FB8ADBB2043BD9
:10073800DBB23A6919467868FFF71CFF0346CD2BF0
:1007480011D10C4B1B689BB2C3F30B039BB2FB810B
:100758000220FFF73FFF07F10E0302221946064861
:1007680000F00DFF01E0FFF751FF00BF1837BD464D
:1007780080BD00BF002004E00010014080B584B0B7
:1007880000AF78600B46FB700023FB737B68FF2B80
:1007980002D101233B7215E000233B727B68DBB278
:1007A800BB727B68DBB2C3F10803BB73BB7B7A689F
:1007B8009A4201D9BB7BFB707B68DAB2FB781344A1
:1007C800DBB2FB7201237B7200F066F907F10803C4
:1007D800184600F07BF900F04FF90123FB73FB7B0F
:1007E80018461037BD4680BD80B584B000AF78602C
:1007F8000223FB730023BB810023BB607B681B784B
:100808009BB20133BB81BB89043B7A6813441B68E4
:10081800BB60BB89DBB2043BDBB2BA6819467868B7
:10082800FFF7A8FE0346CD2B14D17B6802331A6864
:100838007B6806331B7819461046FFF79FFF03466F
:10084800FB73FB7B012B01D10323FB730120FFF713
:10085800C1FE03E0FFF7DAFE0223FB73FB7B1946B8
:10086800034800F06FFEFB7B18461037BD4680BD7D
:100878000010014080B584B000AF78600023FB739E
:100888000423BB730023BB810023BB607B681B78F8
:100898009BB20133BB81BB89043B7A6813441B6854
:1008A800BB60BB89DBB2043BDBB2BA681946786827
:1008B800FFF760FE0346CD2B1ED10120FFF78AFE0D
:1008C8007B6802331B68184600F026F80346BB73A2
:1008D800BB7B052B0DD17B68D81D7B68023319685B
:1008E8007B6806331B781A4600F03EF80346FB7314
:1008F80006E00023FB7303E0FFF788FE0023FB7389
:10090800FB7B1946034800F01DFEFB7B1846103799
:10091800BD4680BD0010014080B485B000AF78604E
:100928007B68B3F1006F06D37B680D4A934202D807
:100938000523FB730CE07B68B3F1007F06D37B686B
:10094800084A934202D80523FB7301E00423FB7392
:10095800FB7B18461437BD465DF8047B704700BF23
:10096800000008080000020280B58CB000AFF860F3
:10097800B9601346FB71002387F82F30BB68B3F1C9
:10098800006F2BD3BB68234A934227D801233B76B9
:1009980000F082F8002387F8273017E097F827300F
:1009A8005B00FA6813441B88FB61BB6802337B61F8
:1009B80007F11403184600F0FBF80346002B02D198
:1009C800012387F82F30FB790133FB7197F8272033
:1009D800FB799A42E2D300F04FF815E0BB683B621E
:1009E8000023BB620CE0BB6A5B00FA6813441988F9
:1009F8003A6ABB6A1344CAB21A70BB6A0133BB6253
:100A0800FB79BA6A9A42EED397F82F3018463037F6
:100A1800BD4680BD0000080880B485B000AF78608E
:100A280039600023BB600023FB6009E0FB689B0082
:100A38007A681344094A1B681360FB680133FB603A
:100A4800FA683B689A42F1D3044B1B68BB60BB68E9
:100A580018461437BD465DF8047B704700300240E5
:100A680080B400AF034B01229A6000BFBD465DF819
:100A7800047B70470030024080B400AF054B1B690F
:100A8800044A43F00043136100BFBD465DF8047B90
:100A9800704700BF003C024080B400AF084B1B69A0
:100AA800DB0F03F00103012B05D1054B054A5A6002
:100AB800034B054A5A6000BFBD465DF8047B70478A
:100AC800003C024023016745AB89EFCD80B485B077
:100AD80000AF786000BF354BDB681B0C03F00103E7
:100AE800012BF8D07B681B78002B35D12F4B1B6965
:100AF8002E4A23F4407313612C4B1B697A68527891
:100B080012021146294A0B4313617B689B78FB73D9
:100B18001CE0264B1B69254A23F078031361234BFD
:100B28001B69FA7BD2001146204A0B4313611F4B05
:100B38001B691E4A43F0020313611C4B1B691B4AC5
:100B480043F480331361FB7B0133FB737B68DB78F1
:100B5800FA7B9A42DDD30FE07B681B78012B0BD11F
:100B6800124B1B69114A43F0040313610F4B1B69B5
:100B78000E4A43F48033136100BF0C4BDB681B0C37
:100B880003F00103012BF8D0084BDB68074A43F058
:100B98000103D360054B1B69044A23F00203136168
:100BA80000BF1437BD465DF8047B7047003C024027
:100BB80080B485B000AF78600023FB7300BF364B6C
:100BC800DB681B0C03F00103012BF8D0324B1B69C7
:100BD800314A23F4407313612F4B1B697A681279E9
:100BE800120211462C4A0B4313612B4B1B692A4AEC
:100BF80043F0010313617B681B79032B2FD801A2F3
:100C080052F823F01D0C00082B0C0008390C0008C2
:100C1800470C00087B689A687B681B68D2B21A7018
:100C28001FE07B689A687B681B6892B21A8018E09C
:100C38007B681B681A467B689B68136011E07B68B9
:100C48001B681A467B689B6813607B689B687A6898
:100C58001268043211462022D3400B6001E00A23B7
:100C6800FB7300BF0C4BDB681B0C03F00103012B6B
:100C7800F8D0094BDB68084A43F00103D360064B00
:100C88001B69054A23F001031361FB7B18461437DF
:100C9800BD465DF8047B7047003C024080B485B0D7
:100CA80000AF0346FB710B46BB7113467B710023F3
:100CB800FB73FB79012B02D1BB790F2B0ED9FB7982
:100CC800022B02D1BB790F2B08D9FB79032B57D103
:100CD800BB790C2B02D8BB790F2B51D8BB795B00A1
:100CE800BB71FB79032B32D0032B45DC012B02D0DF
:100CF800022B16D040E0274B1B68BA79032101FA72
:100D080002F2D2431146234A0B401360214B1B6861
:100D18007979BA7901FA02F211461E4A0B43136037
:100D28002DE01D4B1B68BA79032101FA02F2D24368
:100D38001146194A0B401360174B1B687979BA7929
:100D480001FA02F21146144A0B43136017E0134BE1
:100D58001B68BA79032101FA02F2D24311460F4AFD
:100D68000B4013600D4B1B687979BA7901FA02F2CE
:100D780011460A4A0B4313600423FB7300BF01E0CA
:100D88000423FB73FB7B18461437BD465DF8047BD0
:100D9800704700BF00000240000402400008024003
:100DA80080B485B000AF0346FB710B46BB71134698
:100DB8007B710023FB73FB79012B02D1BB790F2BCD
:100DC8000ED9FB79022B02D1BB790F2B08D9FB79FD
:100DD800032B57D1BB790C2B02D8BB790F2B51D8D9
:100DE800BB795B00BB71FB79032B32D0032B45DC4D
:100DF800012B02D0022B16D040E0274BDB68BA79D2
:100E0800032101FA02F2D2431146234A0B40D36070
:100E1800214BDB687979BA7901FA02F211461E4A48
:100E28000B43D3602DE01D4BDB68BA79032101FA2F
:100E380002F2D2431146194A0B40D360174BDB68C4
:100E48007979BA7901FA02F21146144A0B43D36050
:100E580017E0134BDB68BA79032101FA02F2D24397
:100E680011460F4A0B40D3600D4BDB687979BA798C
:100E780001FA02F211460A4A0B43D3600423FB73BA
:100E880000BF01E00423FB73FB7B18461437BD4603
:100E98005DF8047B704700BF000002400004024078
:100EA8000008024080B485B000AF0346FB710B46D2
:100EB800BB7113467B710023FB73FB79012B02D1B5
:100EC800BB790F2B10D9FB79022B02D1BB790F2BE1
:100ED8000AD9FB79032B40F0BF80BB790C2B03D8D0
:100EE800BB790F2B00F2B880BB79072B54D8FB795C
:100EF800032B36D0032B4CDC012B02D0022B18D04D
:100F080047E05A4B1B6ABA7992000F2101FA02F2A4
:100F1800D2431146554A0B401362544B1B6A7979E8
:100F2800BA79920001FA02F21146504A0B43136251
:100F380091E04F4B1B6ABA7992000F2101FA02F235
:100F4800D24311464A4A0B401362494B1B6A7979CE
:100F5800BA79920001FA02F21146454A0B4313622C
:100F680079E0444B1B6ABA7992000F2101FA02F228
:100F7800D24311463F4A0B4013623E4B1B6A7979B4
:100F8800BA79920001FA02F211463A4A0B43136207
:100F980061E00423FB735EE0BB79072B5AD9FB7928
:100FA800032B3AD0032B52DC012B02D0022B1AD090
:100FB8004DE02E4B5B6ABA79083A92000F2101FA8C
:100FC80002F2D2431146294A0B405362274B5B6A0F
:100FD8007979BA79083A920001FA02F21146234A5D
:100FE8000B43536237E0224B5B6ABA79083A9200A6
:100FF8000F2101FA02F2D24311461D4A0B405362F7
:101008001B4B5B6A7979BA79083A920001FA02F2C5
:101018001146174A0B4353621DE0164B5B6ABA79B7
:10102800083A92000F2101FA02F2D2431146114AFE
:101038000B4053620F4B5B6A7979BA79083A920090
:1010480001FA02F211460B4A0B43536203E00423F0
:10105800FB7300E000BF01E00423FB73FB7B184631
:101068001437BD465DF8047B704700BF000002409E
:10107800000402400008024080B400AF4B4B1B68DC
:101088004A4A43F400231360484B1B68474A23F439
:1010980080231360454B1B68444A43F001031360E7
:1010A800424B1B68414A23F4803313603F4B1B6853
:1010B8003E4A23F0807313603C4B1B683B4A23F085
:1010C80080631360394B9B68384A23F08003936030
:1010D800364B9B68354A23F480539360334B9B68A7
:1010E800324A23F400439360304B5B682F4A23F065
:1010F8003F0353602D4B5B682C4A43F03F0353601A
:101108002A4B5B68294A23F4FF4323F040035360CA
:10111800264B5B68254A43F440535360234B5B6876
:10112800224A23F480335360204B5B681F4A23F420
:10113800003353601D4B5B681C4A23F480035360E3
:101148001A4B9B68194A23F080639360174B9B687E
:10115800164A23F000539360144B9B68134A23F4F8
:1011680000139360114B9B68104A23F4800393602B
:101178000E4B9B680D4A23F0804393600B4B9B6892
:101188000A4A23F000439360084B9B68074A23F000
:1011980001039360054B9B68044A23F002039360A4
:1011A80000BFBD465DF8047B704700BF00380240B1
:1011B80080B485B000AF03460A46FB711346BB7185
:1011C8000023FB73BB791F2B4AD8FB79013B042B07
:1011D80043D801A252F823F0F51100080B120008B9
:1011E80021120008371200084D120008214B1B6B12
:1011F800BA79012101FA02F211461E4A0B43136320
:1012080030E01C4B5B6BBA79012101FA02F21146FE
:10121800184A0B43536325E0164B1B6CBA7901211E
:1012280001FA02F21146134A0B4313641AE0114BF8
:101238005B6CBA79012101FA02F211460D4A0B439F
:1012480053640FE00B4B1B6DBA79012101FA02F2CE
:101258001146084A0B43136504E00223FB7301E0BF
:101268000123FB73FB7B18461437BD465DF8047BEE
:10127800704700BF003802402DE9B04F90B000AF72
:10128800F863B9637A63FB6B9B7A002B02D0012B5E
:1012980075D0DAE0FB6B1B680022BB62FA624FF084
:1012A80000024FF00003D7E90A4529468B00214682
:1012B80043EA917321468A0097A1D1E90001FEF71C
:1012C80087FF02460B46964BA3FB02235B091C01D2
:1012D800FB6B1B6800223B627A624FF000024FF002
:1012E8000003D7E9088949468B00414643EA9173D0
:1012F80041468A0088A1D1E90001FEF769FF02464C
:101308000B46874BA3FB02135B09642101FB03F324
:10131800D31A1B013233824AA2FB03235B0903F071
:10132800F0031C44FB6B1B680022BB61FA614FF0A1
:1013380000024FF00003D7E9068949468B00414671
:1013480043EA917341468A0073A1D1E90001FEF78F
:101358003FFF02460B46724BA3FB02135B09642155
:1013680001FB03F3D31A1B0132336D4AA2FB03239B
:101378005B0903F00F03E2187B6B9A6065E0FB6B77
:101388001B6800221C46154623193B6145EB0503E3
:101398007B61D7E9042360A1D1E90001FEF718FFBA
:1013A80002460B465E4BA3FB02235B091C01FB6B49
:1013B8001B6800229A4693461AEB0A03BB604BEB64
:1013C8000B03FB60D7E9022353A1D1E90001FEF723
:1013D800FFFE02460B46524BA3FB02135B09642136
:1013E80001FB03F3D31ADB0032334D4AA2FB03237C
:1013F8005B095B0003F4F8731C44FB6B1B68002259
:101408009846914618EB08033B6049EB09037B605B
:10141800D7E9002340A1D1E90001FEF7D9FE024631
:101428000B463F4BA3FB02135B09642101FB03F34B
:10143800D31ADB0032333A4AA2FB03235B0903F0D9
:101448000703E2187B6B9A6000BFFB6B9B7ADA0399
:10145800FB6B5B7A5B031A43FB6B1B791B031A4319
:10146800FB6B9B799B021A43FB6BDB795B02134393
:101478001A467B6BDA60FB6B1B7A022B20D0022B9F
:101488002BDC002B02D0012B0DD026E07B6BDB6818
:1014980043F008027B6BDA607B6BDB6823F00402A5
:1014A8007B6BDA6019E07B6BDB6843F004027B6BD3
:1014B800DA607B6BDB6823F008027B6BDA600CE098
:1014C8007B6BDB6843F008027B6BDA607B6BDB6865
:1014D80043F004027B6BDA6000BFFB6B5B791A0395
:1014E800BB6B1B78DB021A43BB6B9B785B021A430E
:1014F800BB6B5B789B021A43BB6BDB781B02134305
:101508001A467B6B1A617B6B00221A6000BF40375A
:10151800BD46BDE8B08F00BF0084D71700000000AB
:101528001F85EB5180B483B000AF78607B68DB68BF
:1015380043F400527B68DA6000BF0C37BD465DF8A3
:10154800047B704780B483B000AF78600B46FB70B3
:10155800FA787B685A6000BF7B681B689B0903F0B8
:101568000103002BF8D07B681B6823F040027B68DE
:101578001A6000BF0C37BD465DF8047B704780B524
:1015880086B000AFF860B9607A60BB68002B17D0EE
:101598000023FB750AE0FB7DBA6813441B781946E3
:1015A800F868FFF7CFFFFB7D0133FB75FB7DBA6859
:1015B80013441B78002BEED1FB7D7A689A42EAD25D
:1015C80000BF1837BD4680BD80B483B000AF7860D7
:1015D80039603B68002B0CD000BF7B681B685B0937
:1015E80003F00103002BF8D07B685B68DAB23B6834
:1015F8001A7000BF0C37BD465DF8047B704780B594
:1016080086B000AFF860B9601346FB71BB68002B69
:1016180010D00023FB7509E0FB7DBA681344194616
:10162800F868FFF7D1FFFB7D0133FB75FA7DFB7985
:101638009A42F1D300BF1837BD4680BD80B500AFD0
:10164800034B00221A60034B1B68984700BF80BDFC
:10165800001001402800002080B500AF034B002295
:101668001A60034B1B68984700BF80BD00440140C7
:101678002C00002080B500AF034B00221A60034BFA
:101688001B68984700BF80BD00140140300000204F
:1016980080B500AFFFF7F0FC00210120FFF788FDBF
:1016A80004210420FFF784FD0C210120FFF780FDB1
:1016B800002200210120FFF7F1FA01220021012078
:1016C800FFF76EFB022209210120FFF7E7FA022249
:1016D8000A210120FFF7E2FA072209210120FFF77A
:1016E800E1FB07220A210120FFF7DCFB054A064936
:1016F8000648FFF7C1FD0348FFF714FFFEF7EAFEAF
:10170800FCE700BF0010014034000020000000206A
:101718000D488546AFF300800C480D490D4A00235B
:1017280002E0D458C4500433C4188C42F9D30A4A8E
:101738000A4C002301E013600432A242FBD300F0FC
:1017480011F8FFF7A5FFFEE70000012000000020C8
:101758000C000020F81700080C00002038000020BA
:10176800FEE7000070B50D4D0D4C641BA41000265B
:10177800A64209D10B4D0C4C00F020F8641BA410B4
:101788000026A64205D170BD55F8043B984701369E
:10179800EEE755F8043B98470136F2E7F0170008E2
:1017A800F0170008F0170008F41700080244034671
:1017B800934200D1704703F8011BF9E7F8B500BF61
:1017C800F8BC08BC9E467047F8B500BFF8BC08BC1A
:0417D8009E46704772
:0C17DC00101112131415161718192021F3
:0817E80020EAFF7F0100000070
:0417F000BD0100082F
:0417F400990100084F
:0C17F80000C20100000000000200000020
:0400000508001719BF
:00000001FF
